{
  "_format": "hh-sol-artifact-1",
  "contractName": "DefiniteNFT",
  "sourceName": "contracts/DefiniteNFT.sol",
  "abi": [
    {
      "inputs": [],
      "stateMutability": "nonpayable",
      "type": "constructor"
    },
    {
      "anonymous": false,
      "inputs": [
        {
          "indexed": true,
          "internalType": "address",
          "name": "owner",
          "type": "address"
        },
        {
          "indexed": true,
          "internalType": "address",
          "name": "approved",
          "type": "address"
        },
        {
          "indexed": true,
          "internalType": "uint256",
          "name": "tokenId",
          "type": "uint256"
        }
      ],
      "name": "Approval",
      "type": "event"
    },
    {
      "anonymous": false,
      "inputs": [
        {
          "indexed": true,
          "internalType": "address",
          "name": "owner",
          "type": "address"
        },
        {
          "indexed": true,
          "internalType": "address",
          "name": "operator",
          "type": "address"
        },
        {
          "indexed": false,
          "internalType": "bool",
          "name": "approved",
          "type": "bool"
        }
      ],
      "name": "ApprovalForAll",
      "type": "event"
    },
    {
      "anonymous": false,
      "inputs": [
        {
          "indexed": true,
          "internalType": "address",
          "name": "previousOwner",
          "type": "address"
        },
        {
          "indexed": true,
          "internalType": "address",
          "name": "newOwner",
          "type": "address"
        }
      ],
      "name": "OwnershipTransferred",
      "type": "event"
    },
    {
      "anonymous": false,
      "inputs": [
        {
          "indexed": true,
          "internalType": "address",
          "name": "from",
          "type": "address"
        },
        {
          "indexed": true,
          "internalType": "address",
          "name": "to",
          "type": "address"
        },
        {
          "indexed": true,
          "internalType": "uint256",
          "name": "tokenId",
          "type": "uint256"
        }
      ],
      "name": "Transfer",
      "type": "event"
    },
    {
      "inputs": [],
      "name": "BurnAllReset",
      "outputs": [],
      "stateMutability": "nonpayable",
      "type": "function"
    },
    {
      "inputs": [
        {
          "internalType": "address",
          "name": "to",
          "type": "address"
        },
        {
          "internalType": "string",
          "name": "tokenURI",
          "type": "string"
        }
      ],
      "name": "TryMint",
      "outputs": [],
      "stateMutability": "nonpayable",
      "type": "function"
    },
    {
      "inputs": [
        {
          "internalType": "address",
          "name": "to",
          "type": "address"
        },
        {
          "internalType": "string[]",
          "name": "tokenURI",
          "type": "string[]"
        }
      ],
      "name": "TryMintMultiple",
      "outputs": [],
      "stateMutability": "nonpayable",
      "type": "function"
    },
    {
      "inputs": [
        {
          "internalType": "address",
          "name": "to",
          "type": "address"
        },
        {
          "internalType": "uint256",
          "name": "tokenId",
          "type": "uint256"
        }
      ],
      "name": "approve",
      "outputs": [],
      "stateMutability": "nonpayable",
      "type": "function"
    },
    {
      "inputs": [
        {
          "internalType": "address",
          "name": "owner",
          "type": "address"
        }
      ],
      "name": "balanceOf",
      "outputs": [
        {
          "internalType": "uint256",
          "name": "",
          "type": "uint256"
        }
      ],
      "stateMutability": "view",
      "type": "function"
    },
    {
      "inputs": [
        {
          "internalType": "uint256",
          "name": "tokenId",
          "type": "uint256"
        }
      ],
      "name": "getApproved",
      "outputs": [
        {
          "internalType": "address",
          "name": "",
          "type": "address"
        }
      ],
      "stateMutability": "view",
      "type": "function"
    },
    {
      "inputs": [
        {
          "internalType": "address",
          "name": "owner",
          "type": "address"
        },
        {
          "internalType": "address",
          "name": "operator",
          "type": "address"
        }
      ],
      "name": "isApprovedForAll",
      "outputs": [
        {
          "internalType": "bool",
          "name": "",
          "type": "bool"
        }
      ],
      "stateMutability": "view",
      "type": "function"
    },
    {
      "inputs": [],
      "name": "name",
      "outputs": [
        {
          "internalType": "string",
          "name": "",
          "type": "string"
        }
      ],
      "stateMutability": "view",
      "type": "function"
    },
    {
      "inputs": [],
      "name": "owner",
      "outputs": [
        {
          "internalType": "address",
          "name": "",
          "type": "address"
        }
      ],
      "stateMutability": "view",
      "type": "function"
    },
    {
      "inputs": [
        {
          "internalType": "uint256",
          "name": "tokenId",
          "type": "uint256"
        }
      ],
      "name": "ownerOf",
      "outputs": [
        {
          "internalType": "address",
          "name": "",
          "type": "address"
        }
      ],
      "stateMutability": "view",
      "type": "function"
    },
    {
      "inputs": [],
      "name": "renounceOwnership",
      "outputs": [],
      "stateMutability": "nonpayable",
      "type": "function"
    },
    {
      "inputs": [
        {
          "internalType": "address",
          "name": "from",
          "type": "address"
        },
        {
          "internalType": "address",
          "name": "to",
          "type": "address"
        },
        {
          "internalType": "uint256",
          "name": "tokenId",
          "type": "uint256"
        }
      ],
      "name": "safeTransferFrom",
      "outputs": [],
      "stateMutability": "nonpayable",
      "type": "function"
    },
    {
      "inputs": [
        {
          "internalType": "address",
          "name": "from",
          "type": "address"
        },
        {
          "internalType": "address",
          "name": "to",
          "type": "address"
        },
        {
          "internalType": "uint256",
          "name": "tokenId",
          "type": "uint256"
        },
        {
          "internalType": "bytes",
          "name": "data",
          "type": "bytes"
        }
      ],
      "name": "safeTransferFrom",
      "outputs": [],
      "stateMutability": "nonpayable",
      "type": "function"
    },
    {
      "inputs": [
        {
          "internalType": "address",
          "name": "operator",
          "type": "address"
        },
        {
          "internalType": "bool",
          "name": "approved",
          "type": "bool"
        }
      ],
      "name": "setApprovalForAll",
      "outputs": [],
      "stateMutability": "nonpayable",
      "type": "function"
    },
    {
      "inputs": [
        {
          "internalType": "bytes4",
          "name": "interfaceId",
          "type": "bytes4"
        }
      ],
      "name": "supportsInterface",
      "outputs": [
        {
          "internalType": "bool",
          "name": "",
          "type": "bool"
        }
      ],
      "stateMutability": "view",
      "type": "function"
    },
    {
      "inputs": [],
      "name": "symbol",
      "outputs": [
        {
          "internalType": "string",
          "name": "",
          "type": "string"
        }
      ],
      "stateMutability": "view",
      "type": "function"
    },
    {
      "inputs": [
        {
          "internalType": "uint256",
          "name": "tokenId",
          "type": "uint256"
        }
      ],
      "name": "tokenURI",
      "outputs": [
        {
          "internalType": "string",
          "name": "",
          "type": "string"
        }
      ],
      "stateMutability": "view",
      "type": "function"
    },
    {
      "inputs": [
        {
          "internalType": "address",
          "name": "from",
          "type": "address"
        },
        {
          "internalType": "address",
          "name": "to",
          "type": "address"
        },
        {
          "internalType": "uint256",
          "name": "tokenId",
          "type": "uint256"
        }
      ],
      "name": "transferFrom",
      "outputs": [],
      "stateMutability": "nonpayable",
      "type": "function"
    },
    {
      "inputs": [
        {
          "internalType": "address",
          "name": "newOwner",
          "type": "address"
        }
      ],
      "name": "transferOwnership",
      "outputs": [],
      "stateMutability": "nonpayable",
      "type": "function"
    }
  ],
  "bytecode": "0x60806040523480156200001157600080fd5b506040518060400160405280600b81526020017f446566696e6974654e46540000000000000000000000000000000000000000008152506040518060400160405280600381526020017f4446540000000000000000000000000000000000000000000000000000000000815250816000908051906020019062000096929190620001a6565b508060019080519060200190620000af929190620001a6565b505050620000d2620000c6620000d860201b60201c565b620000e060201b60201c565b620002bb565b600033905090565b6000600760009054906101000a900473ffffffffffffffffffffffffffffffffffffffff16905081600760006101000a81548173ffffffffffffffffffffffffffffffffffffffff021916908373ffffffffffffffffffffffffffffffffffffffff1602179055508173ffffffffffffffffffffffffffffffffffffffff168173ffffffffffffffffffffffffffffffffffffffff167f8be0079c531659141344cd1fd0a4f28419497f9722a3daafe3b4186f6b6457e060405160405180910390a35050565b828054620001b49062000256565b90600052602060002090601f016020900481019282620001d8576000855562000224565b82601f10620001f357805160ff191683800117855562000224565b8280016001018555821562000224579182015b828111156200022357825182559160200191906001019062000206565b5b50905062000233919062000237565b5090565b5b808211156200025257600081600090555060010162000238565b5090565b600060028204905060018216806200026f57607f821691505b602082108114156200028657620002856200028c565b5b50919050565b7f4e487b7100000000000000000000000000000000000000000000000000000000600052602260045260246000fd5b6131d180620002cb6000396000f3fe608060405234801561001057600080fd5b50600436106101215760003560e01c8063715018a6116100ad578063c87b56dd11610071578063c87b56dd146102f2578063dce2981a14610322578063e946c64e1461033e578063e985e9c514610348578063f2fde38b1461037857610121565b8063715018a6146102745780638da5cb5b1461027e57806395d89b411461029c578063a22cb465146102ba578063b88d4fde146102d657610121565b806323b872dd116100f457806323b872dd146101c057806342842e0e146101dc5780635b0638ed146101f85780636352211e1461021457806370a082311461024457610121565b806301ffc9a71461012657806306fdde0314610156578063081812fc14610174578063095ea7b3146101a4575b600080fd5b610140600480360381019061013b9190612258565b610394565b60405161014d9190612681565b60405180910390f35b61015e610476565b60405161016b919061269c565b60405180910390f35b61018e600480360381019061018991906122aa565b610508565b60405161019b919061261a565b60405180910390f35b6101be60048036038101906101b9919061221c565b61054e565b005b6101da60048036038101906101d5919061206e565b610666565b005b6101f660048036038101906101f1919061206e565b6106c6565b005b610212600480360381019061020d9190612138565b6106e6565b005b61022e600480360381019061022991906122aa565b610798565b60405161023b919061261a565b60405180910390f35b61025e60048036038101906102599190612009565b61084a565b60405161026b91906128de565b60405180910390f35b61027c610902565b005b610286610916565b604051610293919061261a565b60405180910390f35b6102a4610940565b6040516102b1919061269c565b60405180910390f35b6102d460048036038101906102cf919061218c565b6109d2565b005b6102f060048036038101906102eb91906120bd565b6109e8565b005b61030c600480360381019061030791906122aa565b610a4a565b604051610319919061269c565b60405180910390f35b61033c600480360381019061033791906121c8565b610a5c565b005b610346610a90565b005b610362600480360381019061035d9190612032565b610b19565b60405161036f9190612681565b60405180910390f35b610392600480360381019061038d9190612009565b610bad565b005b60007f80ac58cd000000000000000000000000000000000000000000000000000000007bffffffffffffffffffffffffffffffffffffffffffffffffffffffff1916827bffffffffffffffffffffffffffffffffffffffffffffffffffffffff1916148061045f57507f5b5e139f000000000000000000000000000000000000000000000000000000007bffffffffffffffffffffffffffffffffffffffffffffffffffffffff1916827bffffffffffffffffffffffffffffffffffffffffffffffffffffffff1916145b8061046f575061046e82610c31565b5b9050919050565b60606000805461048590612b60565b80601f01602080910402602001604051908101604052809291908181526020018280546104b190612b60565b80156104fe5780601f106104d3576101008083540402835291602001916104fe565b820191906000526020600020905b8154815290600101906020018083116104e157829003601f168201915b5050505050905090565b600061051382610c9b565b6004600083815260200190815260200160002060009054906101000a900473ffffffffffffffffffffffffffffffffffffffff169050919050565b600061055982610798565b90508073ffffffffffffffffffffffffffffffffffffffff168373ffffffffffffffffffffffffffffffffffffffff1614156105ca576040517f08c379a00000000000000000000000000000000000000000000000000000000081526004016105c19061285e565b60405180910390fd5b8073ffffffffffffffffffffffffffffffffffffffff166105e9610ce6565b73ffffffffffffffffffffffffffffffffffffffff161480610618575061061781610612610ce6565b610b19565b5b610657576040517f08c379a000000000000000000000000000000000000000000000000000000000815260040161064e906127de565b60405180910390fd5b6106618383610cee565b505050565b610677610671610ce6565b82610da7565b6106b6576040517f08c379a00000000000000000000000000000000000000000000000000000000081526004016106ad9061289e565b60405180910390fd5b6106c1838383610e3c565b505050565b6106e1838383604051806020016040528060008152506109e8565b505050565b600081511161072a576040517f08c379a0000000000000000000000000000000000000000000000000000000008152600401610721906127be565b60405180910390fd5b60005b81518110156107935761078083838381518110610773577f4e487b7100000000000000000000000000000000000000000000000000000000600052603260045260246000fd5b6020026020010151610a5c565b808061078b90612bc3565b91505061072d565b505050565b6000806002600084815260200190815260200160002060009054906101000a900473ffffffffffffffffffffffffffffffffffffffff169050600073ffffffffffffffffffffffffffffffffffffffff168173ffffffffffffffffffffffffffffffffffffffff161415610841576040517f08c379a00000000000000000000000000000000000000000000000000000000081526004016108389061283e565b60405180910390fd5b80915050919050565b60008073ffffffffffffffffffffffffffffffffffffffff168273ffffffffffffffffffffffffffffffffffffffff1614156108bb576040517f08c379a00000000000000000000000000000000000000000000000000000000081526004016108b29061277e565b60405180910390fd5b600360008373ffffffffffffffffffffffffffffffffffffffff1673ffffffffffffffffffffffffffffffffffffffff168152602001908152602001600020549050919050565b61090a6110a3565b6109146000611121565b565b6000600760009054906101000a900473ffffffffffffffffffffffffffffffffffffffff16905090565b60606001805461094f90612b60565b80601f016020809104026020016040519081016040528092919081815260200182805461097b90612b60565b80156109c85780601f1061099d576101008083540402835291602001916109c8565b820191906000526020600020905b8154815290600101906020018083116109ab57829003601f168201915b5050505050905090565b6109e46109dd610ce6565b83836111e7565b5050565b6109f96109f3610ce6565b83610da7565b610a38576040517f08c379a0000000000000000000000000000000000000000000000000000000008152600401610a2f9061289e565b60405180910390fd5b610a4484848484611354565b50505050565b6060610a55826113b0565b9050919050565b610a6f82610a6a60086114c3565b6114d1565b610a82610a7c60086114c3565b826116ab565b610a8c600861171f565b5050565b6000610a9c60086114c3565b11610adc576040517f08c379a0000000000000000000000000000000000000000000000000000000008152600401610ad3906128be565b60405180910390fd5b60005b610ae960086114c3565b811015610b0c57610af981611735565b8080610b0490612bc3565b915050610adf565b50610b17600861178d565b565b6000600560008473ffffffffffffffffffffffffffffffffffffffff1673ffffffffffffffffffffffffffffffffffffffff16815260200190815260200160002060008373ffffffffffffffffffffffffffffffffffffffff1673ffffffffffffffffffffffffffffffffffffffff16815260200190815260200160002060009054906101000a900460ff16905092915050565b610bb56110a3565b600073ffffffffffffffffffffffffffffffffffffffff168173ffffffffffffffffffffffffffffffffffffffff161415610c25576040517f08c379a0000000000000000000000000000000000000000000000000000000008152600401610c1c906126de565b60405180910390fd5b610c2e81611121565b50565b60007f01ffc9a7000000000000000000000000000000000000000000000000000000007bffffffffffffffffffffffffffffffffffffffffffffffffffffffff1916827bffffffffffffffffffffffffffffffffffffffffffffffffffffffff1916149050919050565b610ca48161179a565b610ce3576040517f08c379a0000000000000000000000000000000000000000000000000000000008152600401610cda9061283e565b60405180910390fd5b50565b600033905090565b816004600083815260200190815260200160002060006101000a81548173ffffffffffffffffffffffffffffffffffffffff021916908373ffffffffffffffffffffffffffffffffffffffff160217905550808273ffffffffffffffffffffffffffffffffffffffff16610d6183610798565b73ffffffffffffffffffffffffffffffffffffffff167f8c5be1e5ebec7d5bd14f71427d1e84f3dd0314c0f7b2291e5b200ac8c7c3b92560405160405180910390a45050565b600080610db383610798565b90508073ffffffffffffffffffffffffffffffffffffffff168473ffffffffffffffffffffffffffffffffffffffff161480610df55750610df48185610b19565b5b80610e3357508373ffffffffffffffffffffffffffffffffffffffff16610e1b84610508565b73ffffffffffffffffffffffffffffffffffffffff16145b91505092915050565b8273ffffffffffffffffffffffffffffffffffffffff16610e5c82610798565b73ffffffffffffffffffffffffffffffffffffffff1614610eb2576040517f08c379a0000000000000000000000000000000000000000000000000000000008152600401610ea9906126fe565b60405180910390fd5b600073ffffffffffffffffffffffffffffffffffffffff168273ffffffffffffffffffffffffffffffffffffffff161415610f22576040517f08c379a0000000000000000000000000000000000000000000000000000000008152600401610f199061273e565b60405180910390fd5b610f2d838383611806565b610f38600082610cee565b6001600360008573ffffffffffffffffffffffffffffffffffffffff1673ffffffffffffffffffffffffffffffffffffffff1681526020019081526020016000206000828254610f889190612a76565b925050819055506001600360008473ffffffffffffffffffffffffffffffffffffffff1673ffffffffffffffffffffffffffffffffffffffff1681526020019081526020016000206000828254610fdf91906129ef565b92505081905550816002600083815260200190815260200160002060006101000a81548173ffffffffffffffffffffffffffffffffffffffff021916908373ffffffffffffffffffffffffffffffffffffffff160217905550808273ffffffffffffffffffffffffffffffffffffffff168473ffffffffffffffffffffffffffffffffffffffff167fddf252ad1be2c89b69c2b068fc378daa952ba7f163c4a11628f55a4df523b3ef60405160405180910390a461109e83838361180b565b505050565b6110ab610ce6565b73ffffffffffffffffffffffffffffffffffffffff166110c9610916565b73ffffffffffffffffffffffffffffffffffffffff161461111f576040517f08c379a00000000000000000000000000000000000000000000000000000000081526004016111169061281e565b60405180910390fd5b565b6000600760009054906101000a900473ffffffffffffffffffffffffffffffffffffffff16905081600760006101000a81548173ffffffffffffffffffffffffffffffffffffffff021916908373ffffffffffffffffffffffffffffffffffffffff1602179055508173ffffffffffffffffffffffffffffffffffffffff168173ffffffffffffffffffffffffffffffffffffffff167f8be0079c531659141344cd1fd0a4f28419497f9722a3daafe3b4186f6b6457e060405160405180910390a35050565b8173ffffffffffffffffffffffffffffffffffffffff168373ffffffffffffffffffffffffffffffffffffffff161415611256576040517f08c379a000000000000000000000000000000000000000000000000000000000815260040161124d9061275e565b60405180910390fd5b80600560008573ffffffffffffffffffffffffffffffffffffffff1673ffffffffffffffffffffffffffffffffffffffff16815260200190815260200160002060008473ffffffffffffffffffffffffffffffffffffffff1673ffffffffffffffffffffffffffffffffffffffff16815260200190815260200160002060006101000a81548160ff0219169083151502179055508173ffffffffffffffffffffffffffffffffffffffff168373ffffffffffffffffffffffffffffffffffffffff167f17307eab39ab6107e8899845ad3d59bd9653f200f220920489ca2b5937696c31836040516113479190612681565b60405180910390a3505050565b61135f848484610e3c565b61136b84848484611810565b6113aa576040517f08c379a00000000000000000000000000000000000000000000000000000000081526004016113a1906126be565b60405180910390fd5b50505050565b60606113bb82610c9b565b60006006600084815260200190815260200160002080546113db90612b60565b80601f016020809104026020016040519081016040528092919081815260200182805461140790612b60565b80156114545780601f1061142957610100808354040283529160200191611454565b820191906000526020600020905b81548152906001019060200180831161143757829003601f168201915b5050505050905060006114656119a7565b905060008151141561147b5781925050506114be565b6000825111156114b05780826040516020016114989291906125f6565b604051602081830303815290604052925050506114be565b6114b9846119be565b925050505b919050565b600081600001549050919050565b600073ffffffffffffffffffffffffffffffffffffffff168273ffffffffffffffffffffffffffffffffffffffff161415611541576040517f08c379a0000000000000000000000000000000000000000000000000000000008152600401611538906127fe565b60405180910390fd5b61154a8161179a565b1561158a576040517f08c379a00000000000000000000000000000000000000000000000000000000081526004016115819061271e565b60405180910390fd5b61159660008383611806565b6001600360008473ffffffffffffffffffffffffffffffffffffffff1673ffffffffffffffffffffffffffffffffffffffff16815260200190815260200160002060008282546115e691906129ef565b92505081905550816002600083815260200190815260200160002060006101000a81548173ffffffffffffffffffffffffffffffffffffffff021916908373ffffffffffffffffffffffffffffffffffffffff160217905550808273ffffffffffffffffffffffffffffffffffffffff16600073ffffffffffffffffffffffffffffffffffffffff167fddf252ad1be2c89b69c2b068fc378daa952ba7f163c4a11628f55a4df523b3ef60405160405180910390a46116a76000838361180b565b5050565b6116b48261179a565b6116f3576040517f08c379a00000000000000000000000000000000000000000000000000000000081526004016116ea9061279e565b60405180910390fd5b8060066000848152602001908152602001600020908051906020019061171a929190611d66565b505050565b6001816000016000828254019250508190555050565b600061174160086114c3565b11611781576040517f08c379a00000000000000000000000000000000000000000000000000000000081526004016117789061287e565b60405180910390fd5b61178a81611a26565b50565b6000816000018190555050565b60008073ffffffffffffffffffffffffffffffffffffffff166002600084815260200190815260200160002060009054906101000a900473ffffffffffffffffffffffffffffffffffffffff1673ffffffffffffffffffffffffffffffffffffffff1614159050919050565b505050565b505050565b60006118318473ffffffffffffffffffffffffffffffffffffffff16611a79565b1561199a578373ffffffffffffffffffffffffffffffffffffffff1663150b7a0261185a610ce6565b8786866040518563ffffffff1660e01b815260040161187c9493929190612635565b602060405180830381600087803b15801561189657600080fd5b505af19250505080156118c757506040513d601f19601f820116820180604052508101906118c49190612281565b60015b61194a573d80600081146118f7576040519150601f19603f3d011682016040523d82523d6000602084013e6118fc565b606091505b50600081511415611942576040517f08c379a0000000000000000000000000000000000000000000000000000000008152600401611939906126be565b60405180910390fd5b805181602001fd5b63150b7a0260e01b7bffffffffffffffffffffffffffffffffffffffffffffffffffffffff1916817bffffffffffffffffffffffffffffffffffffffffffffffffffffffff19161491505061199f565b600190505b949350505050565b606060405180602001604052806000815250905090565b60606119c982610c9b565b60006119d36119a7565b905060008151116119f35760405180602001604052806000815250611a1e565b806119fd84611a9c565b604051602001611a0e9291906125f6565b6040516020818303038152906040525b915050919050565b611a2f81611c49565b6000600660008381526020019081526020016000208054611a4f90612b60565b905014611a7657600660008281526020019081526020016000206000611a759190611dec565b5b50565b6000808273ffffffffffffffffffffffffffffffffffffffff163b119050919050565b60606000821415611ae4576040518060400160405280600181526020017f30000000000000000000000000000000000000000000000000000000000000008152509050611c44565b600082905060005b60008214611b16578080611aff90612bc3565b915050600a82611b0f9190612a45565b9150611aec565b60008167ffffffffffffffff811115611b58577f4e487b7100000000000000000000000000000000000000000000000000000000600052604160045260246000fd5b6040519080825280601f01601f191660200182016040528015611b8a5781602001600182028036833780820191505090505b5090505b60008514611c3d57600182611ba39190612a76565b9150600a85611bb29190612c0c565b6030611bbe91906129ef565b60f81b818381518110611bfa577f4e487b7100000000000000000000000000000000000000000000000000000000600052603260045260246000fd5b60200101907effffffffffffffffffffffffffffffffffffffffffffffffffffffffffffff1916908160001a905350600a85611c369190612a45565b9450611b8e565b8093505050505b919050565b6000611c5482610798565b9050611c6281600084611806565b611c6d600083610cee565b6001600360008373ffffffffffffffffffffffffffffffffffffffff1673ffffffffffffffffffffffffffffffffffffffff1681526020019081526020016000206000828254611cbd9190612a76565b925050819055506002600083815260200190815260200160002060006101000a81549073ffffffffffffffffffffffffffffffffffffffff021916905581600073ffffffffffffffffffffffffffffffffffffffff168273ffffffffffffffffffffffffffffffffffffffff167fddf252ad1be2c89b69c2b068fc378daa952ba7f163c4a11628f55a4df523b3ef60405160405180910390a4611d628160008461180b565b5050565b828054611d7290612b60565b90600052602060002090601f016020900481019282611d945760008555611ddb565b82601f10611dad57805160ff1916838001178555611ddb565b82800160010185558215611ddb579182015b82811115611dda578251825591602001919060010190611dbf565b5b509050611de89190611e2c565b5090565b508054611df890612b60565b6000825580601f10611e0a5750611e29565b601f016020900490600052602060002090810190611e289190611e2c565b5b50565b5b80821115611e45576000816000905550600101611e2d565b5090565b6000611e5c611e578461291e565b6128f9565b9050808382526020820190508260005b85811015611e9c5781358501611e828882611fca565b845260208401935060208301925050600181019050611e6c565b5050509392505050565b6000611eb9611eb48461294a565b6128f9565b905082815260208101848484011115611ed157600080fd5b611edc848285612b1e565b509392505050565b6000611ef7611ef28461297b565b6128f9565b905082815260208101848484011115611f0f57600080fd5b611f1a848285612b1e565b509392505050565b600081359050611f318161313f565b92915050565b600082601f830112611f4857600080fd5b8135611f58848260208601611e49565b91505092915050565b600081359050611f7081613156565b92915050565b600081359050611f858161316d565b92915050565b600081519050611f9a8161316d565b92915050565b600082601f830112611fb157600080fd5b8135611fc1848260208601611ea6565b91505092915050565b600082601f830112611fdb57600080fd5b8135611feb848260208601611ee4565b91505092915050565b60008135905061200381613184565b92915050565b60006020828403121561201b57600080fd5b600061202984828501611f22565b91505092915050565b6000806040838503121561204557600080fd5b600061205385828601611f22565b925050602061206485828601611f22565b9150509250929050565b60008060006060848603121561208357600080fd5b600061209186828701611f22565b93505060206120a286828701611f22565b92505060406120b386828701611ff4565b9150509250925092565b600080600080608085870312156120d357600080fd5b60006120e187828801611f22565b94505060206120f287828801611f22565b935050604061210387828801611ff4565b925050606085013567ffffffffffffffff81111561212057600080fd5b61212c87828801611fa0565b91505092959194509250565b6000806040838503121561214b57600080fd5b600061215985828601611f22565b925050602083013567ffffffffffffffff81111561217657600080fd5b61218285828601611f37565b9150509250929050565b6000806040838503121561219f57600080fd5b60006121ad85828601611f22565b92505060206121be85828601611f61565b9150509250929050565b600080604083850312156121db57600080fd5b60006121e985828601611f22565b925050602083013567ffffffffffffffff81111561220657600080fd5b61221285828601611fca565b9150509250929050565b6000806040838503121561222f57600080fd5b600061223d85828601611f22565b925050602061224e85828601611ff4565b9150509250929050565b60006020828403121561226a57600080fd5b600061227884828501611f76565b91505092915050565b60006020828403121561229357600080fd5b60006122a184828501611f8b565b91505092915050565b6000602082840312156122bc57600080fd5b60006122ca84828501611ff4565b91505092915050565b6122dc81612aaa565b82525050565b6122eb81612abc565b82525050565b60006122fc826129ac565b61230681856129c2565b9350612316818560208601612b2d565b61231f81612cf9565b840191505092915050565b6000612335826129b7565b61233f81856129d3565b935061234f818560208601612b2d565b61235881612cf9565b840191505092915050565b600061236e826129b7565b61237881856129e4565b9350612388818560208601612b2d565b80840191505092915050565b60006123a16032836129d3565b91506123ac82612d0a565b604082019050919050565b60006123c46026836129d3565b91506123cf82612d59565b604082019050919050565b60006123e76025836129d3565b91506123f282612da8565b604082019050919050565b600061240a601c836129d3565b915061241582612df7565b602082019050919050565b600061242d6024836129d3565b915061243882612e20565b604082019050919050565b60006124506019836129d3565b915061245b82612e6f565b602082019050919050565b60006124736029836129d3565b915061247e82612e98565b604082019050919050565b6000612496602e836129d3565b91506124a182612ee7565b604082019050919050565b60006124b96027836129d3565b91506124c482612f36565b604082019050919050565b60006124dc603e836129d3565b91506124e782612f85565b604082019050919050565b60006124ff6020836129d3565b915061250a82612fd4565b602082019050919050565b60006125226020836129d3565b915061252d82612ffd565b602082019050919050565b60006125456018836129d3565b915061255082613026565b602082019050919050565b60006125686021836129d3565b91506125738261304f565b604082019050919050565b600061258b6014836129d3565b91506125968261309e565b602082019050919050565b60006125ae602e836129d3565b91506125b9826130c7565b604082019050919050565b60006125d16015836129d3565b91506125dc82613116565b602082019050919050565b6125f081612b14565b82525050565b60006126028285612363565b915061260e8284612363565b91508190509392505050565b600060208201905061262f60008301846122d3565b92915050565b600060808201905061264a60008301876122d3565b61265760208301866122d3565b61266460408301856125e7565b818103606083015261267681846122f1565b905095945050505050565b600060208201905061269660008301846122e2565b92915050565b600060208201905081810360008301526126b6818461232a565b905092915050565b600060208201905081810360008301526126d781612394565b9050919050565b600060208201905081810360008301526126f7816123b7565b9050919050565b60006020820190508181036000830152612717816123da565b9050919050565b60006020820190508181036000830152612737816123fd565b9050919050565b6000602082019050818103600083015261275781612420565b9050919050565b6000602082019050818103600083015261277781612443565b9050919050565b6000602082019050818103600083015261279781612466565b9050919050565b600060208201905081810360008301526127b781612489565b9050919050565b600060208201905081810360008301526127d7816124ac565b9050919050565b600060208201905081810360008301526127f7816124cf565b9050919050565b60006020820190508181036000830152612817816124f2565b9050919050565b6000602082019050818103600083015261283781612515565b9050919050565b6000602082019050818103600083015261285781612538565b9050919050565b600060208201905081810360008301526128778161255b565b9050919050565b600060208201905081810360008301526128978161257e565b9050919050565b600060208201905081810360008301526128b7816125a1565b9050919050565b600060208201905081810360008301526128d7816125c4565b9050919050565b60006020820190506128f360008301846125e7565b92915050565b6000612903612914565b905061290f8282612b92565b919050565b6000604051905090565b600067ffffffffffffffff82111561293957612938612cca565b5b602082029050602081019050919050565b600067ffffffffffffffff82111561296557612964612cca565b5b61296e82612cf9565b9050602081019050919050565b600067ffffffffffffffff82111561299657612995612cca565b5b61299f82612cf9565b9050602081019050919050565b600081519050919050565b600081519050919050565b600082825260208201905092915050565b600082825260208201905092915050565b600081905092915050565b60006129fa82612b14565b9150612a0583612b14565b9250827fffffffffffffffffffffffffffffffffffffffffffffffffffffffffffffffff03821115612a3a57612a39612c3d565b5b828201905092915050565b6000612a5082612b14565b9150612a5b83612b14565b925082612a6b57612a6a612c6c565b5b828204905092915050565b6000612a8182612b14565b9150612a8c83612b14565b925082821015612a9f57612a9e612c3d565b5b828203905092915050565b6000612ab582612af4565b9050919050565b60008115159050919050565b60007fffffffff0000000000000000000000000000000000000000000000000000000082169050919050565b600073ffffffffffffffffffffffffffffffffffffffff82169050919050565b6000819050919050565b82818337600083830152505050565b60005b83811015612b4b578082015181840152602081019050612b30565b83811115612b5a576000848401525b50505050565b60006002820490506001821680612b7857607f821691505b60208210811415612b8c57612b8b612c9b565b5b50919050565b612b9b82612cf9565b810181811067ffffffffffffffff82111715612bba57612bb9612cca565b5b80604052505050565b6000612bce82612b14565b91507fffffffffffffffffffffffffffffffffffffffffffffffffffffffffffffffff821415612c0157612c00612c3d565b5b600182019050919050565b6000612c1782612b14565b9150612c2283612b14565b925082612c3257612c31612c6c565b5b828206905092915050565b7f4e487b7100000000000000000000000000000000000000000000000000000000600052601160045260246000fd5b7f4e487b7100000000000000000000000000000000000000000000000000000000600052601260045260246000fd5b7f4e487b7100000000000000000000000000000000000000000000000000000000600052602260045260246000fd5b7f4e487b7100000000000000000000000000000000000000000000000000000000600052604160045260246000fd5b6000601f19601f8301169050919050565b7f4552433732313a207472616e7366657220746f206e6f6e20455243373231526560008201527f63656976657220696d706c656d656e7465720000000000000000000000000000602082015250565b7f4f776e61626c653a206e6577206f776e657220697320746865207a65726f206160008201527f6464726573730000000000000000000000000000000000000000000000000000602082015250565b7f4552433732313a207472616e736665722066726f6d20696e636f72726563742060008201527f6f776e6572000000000000000000000000000000000000000000000000000000602082015250565b7f4552433732313a20746f6b656e20616c7265616479206d696e74656400000000600082015250565b7f4552433732313a207472616e7366657220746f20746865207a65726f2061646460008201527f7265737300000000000000000000000000000000000000000000000000000000602082015250565b7f4552433732313a20617070726f766520746f2063616c6c657200000000000000600082015250565b7f4552433732313a2061646472657373207a65726f206973206e6f74206120766160008201527f6c6964206f776e65720000000000000000000000000000000000000000000000602082015250565b7f45524337323155524953746f726167653a2055524920736574206f66206e6f6e60008201527f6578697374656e7420746f6b656e000000000000000000000000000000000000602082015250565b7f4572726f723a20746f6b656e555249206d75737420626520677265617465722060008201527f7468616e20302100000000000000000000000000000000000000000000000000602082015250565b7f4552433732313a20617070726f76652063616c6c6572206973206e6f7420746f60008201527f6b656e206f776e6572206e6f7220617070726f76656420666f7220616c6c0000602082015250565b7f4552433732313a206d696e7420746f20746865207a65726f2061646472657373600082015250565b7f4f776e61626c653a2063616c6c6572206973206e6f7420746865206f776e6572600082015250565b7f4552433732313a20696e76616c696420746f6b656e2049440000000000000000600082015250565b7f4552433732313a20617070726f76616c20746f2063757272656e74206f776e6560008201527f7200000000000000000000000000000000000000000000000000000000000000602082015250565b7f4572726f723a204e6f206d696e746564204e4654000000000000000000000000600082015250565b7f4552433732313a2063616c6c6572206973206e6f7420746f6b656e206f776e6560008201527f72206e6f7220617070726f766564000000000000000000000000000000000000602082015250565b7f4572726f723a204e6f206d696e746564204e4654210000000000000000000000600082015250565b61314881612aaa565b811461315357600080fd5b50565b61315f81612abc565b811461316a57600080fd5b50565b61317681612ac8565b811461318157600080fd5b50565b61318d81612b14565b811461319857600080fd5b5056fea2646970667358221220c87b1b0864a1df956431eaffbedc17a6bba6615dca477cc6139a05ab4dbf9ea264736f6c63430008010033",
  "linkReferences": {},
  "deployedLinkReferences": {}
}