{
  "_format": "hh-sol-artifact-1",
  "contractName": "DefiniteToken",
  "sourceName": "contracts/DefiniteToken.sol",
  "abi": [
    {
      "inputs": [],
      "stateMutability": "nonpayable",
      "type": "constructor"
    },
    {
      "inputs": [],
      "name": "BurnAllNFT",
      "outputs": [],
      "stateMutability": "nonpayable",
      "type": "function"
    },
    {
      "inputs": [
        {
          "internalType": "address payable",
          "name": "recepient",
          "type": "address"
        },
        {
          "internalType": "uint256",
          "name": "idOnWallet",
          "type": "uint256"
        }
      ],
      "name": "BuyFromAddress",
      "outputs": [],
      "stateMutability": "payable",
      "type": "function"
    },
    {
      "inputs": [],
      "name": "GetNFTDetailsFromAddress",
      "outputs": [
        {
          "components": [
            {
              "internalType": "uint256",
              "name": "_id",
              "type": "uint256"
            },
            {
              "internalType": "string",
              "name": "_details",
              "type": "string"
            },
            {
              "internalType": "bool",
              "name": "_isForSale",
              "type": "bool"
            }
          ],
          "internalType": "struct DefiniteToken.NFT[]",
          "name": "",
          "type": "tuple[]"
        }
      ],
      "stateMutability": "view",
      "type": "function"
    },
    {
      "inputs": [
        {
          "internalType": "string",
          "name": "details",
          "type": "string"
        }
      ],
      "name": "Mint",
      "outputs": [],
      "stateMutability": "nonpayable",
      "type": "function"
    },
    {
      "inputs": [
        {
          "internalType": "string[]",
          "name": "details",
          "type": "string[]"
        }
      ],
      "name": "MultipleMint",
      "outputs": [],
      "stateMutability": "nonpayable",
      "type": "function"
    },
    {
      "inputs": [
        {
          "internalType": "address",
          "name": "owner",
          "type": "address"
        },
        {
          "internalType": "uint256",
          "name": "id",
          "type": "uint256"
        }
      ],
      "name": "RemoveID",
      "outputs": [],
      "stateMutability": "nonpayable",
      "type": "function"
    },
    {
      "inputs": [
        {
          "internalType": "uint256",
          "name": "idOnWallet",
          "type": "uint256"
        }
      ],
      "name": "SetNFTForSale",
      "outputs": [],
      "stateMutability": "nonpayable",
      "type": "function"
    },
    {
      "inputs": [
        {
          "internalType": "address",
          "name": "",
          "type": "address"
        },
        {
          "internalType": "uint256",
          "name": "",
          "type": "uint256"
        }
      ],
      "name": "_NFTOnAddress",
      "outputs": [
        {
          "internalType": "uint256",
          "name": "_id",
          "type": "uint256"
        },
        {
          "internalType": "string",
          "name": "_details",
          "type": "string"
        },
        {
          "internalType": "bool",
          "name": "_isForSale",
          "type": "bool"
        }
      ],
      "stateMutability": "view",
      "type": "function"
    }
  ],
  "bytecode": "0x608060405234801561001057600080fd5b5060008081905550611eb0806100276000396000f3fe60806040526004361061007b5760003560e01c8063c6dfb6b31161004e578063c6dfb6b314610112578063c9ca4b151461013b578063ca0bf16814610166578063cc671e07146101825761007b565b80634ecdc143146100805780634f2a1b3c146100a9578063c5e1d731146100d2578063c63290c2146100fb575b600080fd5b34801561008c57600080fd5b506100a760048036038101906100a2919061144f565b6101c1565b005b3480156100b557600080fd5b506100d060048036038101906100cb91906114d1565b61022d565b005b3480156100de57600080fd5b506100f960048036038101906100f49190611490565b61041d565b005b34801561010757600080fd5b50610110610507565b005b34801561011e57600080fd5b5061013960048036038101906101349190611413565b610628565b005b34801561014757600080fd5b50610150610949565b60405161015d9190611799565b60405180910390f35b610180600480360381019061017b91906113d7565b610b65565b005b34801561018e57600080fd5b506101a960048036038101906101a49190611413565b61103a565b6040516101b8939291906118bb565b60405180910390f35b60005b815181101561022957610216828281518110610209577f4e487b7100000000000000000000000000000000000000000000000000000000600052603260045260246000fd5b602002602001015161041d565b808061022190611b94565b9150506101c4565b5050565b6000805411610271576040517f08c379a00000000000000000000000000000000000000000000000000000000081526004016102689061181b565b60405180910390fd5b6000600160003373ffffffffffffffffffffffffffffffffffffffff1673ffffffffffffffffffffffffffffffffffffffff16815260200190815260200160002080549050116102f6576040517f08c379a00000000000000000000000000000000000000000000000000000000081526004016102ed9061183b565b60405180910390fd5b80600160003373ffffffffffffffffffffffffffffffffffffffff1673ffffffffffffffffffffffffffffffffffffffff168152602001908152602001600020805490501161037a576040517f08c379a0000000000000000000000000000000000000000000000000000000008152600401610371906117fb565b60405180910390fd5b60018060003373ffffffffffffffffffffffffffffffffffffffff1673ffffffffffffffffffffffffffffffffffffffff16815260200190815260200160002082815481106103f2577f4e487b7100000000000000000000000000000000000000000000000000000000600052603260045260246000fd5b906000526020600020906003020160020160006101000a81548160ff02191690831515021790555050565b610425611116565b600054816000018181525050818160200181905250600160003373ffffffffffffffffffffffffffffffffffffffff1673ffffffffffffffffffffffffffffffffffffffff1681526020019081526020016000208190806001815401808255809150506001900390600052602060002090600302016000909190919091506000820151816000015560208201518160010190805190602001906104c9929190611139565b5060408201518160020160006101000a81548160ff02191690831515021790555050506000808154809291906104fe90611b94565b91905055505050565b6000600160003373ffffffffffffffffffffffffffffffffffffffff1673ffffffffffffffffffffffffffffffffffffffff1681526020019081526020016000208054905090505b600081111561062557600160003373ffffffffffffffffffffffffffffffffffffffff1673ffffffffffffffffffffffffffffffffffffffff1681526020019081526020016000208054806105cd577f4e487b7100000000000000000000000000000000000000000000000000000000600052603160045260246000fd5b60019003818190600052602060002090600302016000808201600090556001820160006105fa91906111bf565b6002820160006101000a81549060ff021916905550509055808061061d90611b07565b91505061054f565b50565b80600160008473ffffffffffffffffffffffffffffffffffffffff1673ffffffffffffffffffffffffffffffffffffffff16815260200190815260200160002080549050116106ac576040517f08c379a00000000000000000000000000000000000000000000000000000000081526004016106a39061185b565b60405180910390fd5b60008190505b60018060008573ffffffffffffffffffffffffffffffffffffffff1673ffffffffffffffffffffffffffffffffffffffff168152602001908152602001600020805490506107009190611a37565b81101561088a57600160008473ffffffffffffffffffffffffffffffffffffffff1673ffffffffffffffffffffffffffffffffffffffff16815260200190815260200160002060018261075391906119e1565b8154811061078a577f4e487b7100000000000000000000000000000000000000000000000000000000600052603260045260246000fd5b9060005260206000209060030201600160008573ffffffffffffffffffffffffffffffffffffffff1673ffffffffffffffffffffffffffffffffffffffff168152602001908152602001600020828154811061080f577f4e487b7100000000000000000000000000000000000000000000000000000000600052603260045260246000fd5b906000526020600020906003020160008201548160000155600182018160010190805461083b90611b31565b6108469291906111ff565b506002820160009054906101000a900460ff168160020160006101000a81548160ff021916908315150217905550905050808061088290611b94565b9150506106b2565b50600160008373ffffffffffffffffffffffffffffffffffffffff1673ffffffffffffffffffffffffffffffffffffffff168152602001908152602001600020805480610900577f4e487b7100000000000000000000000000000000000000000000000000000000600052603160045260246000fd5b600190038181906000526020600020906003020160008082016000905560018201600061092d91906111bf565b6002820160006101000a81549060ff0219169055505090555050565b6060600080541161098f576040517f08c379a00000000000000000000000000000000000000000000000000000000081526004016109869061181b565b60405180910390fd5b6000600160003373ffffffffffffffffffffffffffffffffffffffff1673ffffffffffffffffffffffffffffffffffffffff1681526020019081526020016000208054905011610a14576040517f08c379a0000000000000000000000000000000000000000000000000000000008152600401610a0b9061183b565b60405180910390fd5b600160003373ffffffffffffffffffffffffffffffffffffffff1673ffffffffffffffffffffffffffffffffffffffff168152602001908152602001600020805480602002602001604051908101604052809291908181526020016000905b82821015610b5c578382906000526020600020906003020160405180606001604052908160008201548152602001600182018054610ab090611b31565b80601f0160208091040260200160405190810160405280929190818152602001828054610adc90611b31565b8015610b295780601f10610afe57610100808354040283529160200191610b29565b820191906000526020600020905b815481529060010190602001808311610b0c57829003601f168201915b505050505081526020016002820160009054906101000a900460ff16151515158152505081526020019060010190610a73565b50505050905090565b662386f26fc100003414610bae576040517f08c379a0000000000000000000000000000000000000000000000000000000008152600401610ba5906117bb565b60405180910390fd5b6000805411610bf2576040517f08c379a0000000000000000000000000000000000000000000000000000000008152600401610be99061181b565b60405180910390fd5b6000600160008473ffffffffffffffffffffffffffffffffffffffff1673ffffffffffffffffffffffffffffffffffffffff1681526020019081526020016000208054905011610c77576040517f08c379a0000000000000000000000000000000000000000000000000000000008152600401610c6e906117db565b60405180910390fd5b80600160008473ffffffffffffffffffffffffffffffffffffffff1673ffffffffffffffffffffffffffffffffffffffff1681526020019081526020016000208054905011610cfb576040517f08c379a0000000000000000000000000000000000000000000000000000000008152600401610cf29061189b565b60405180910390fd5b600160008373ffffffffffffffffffffffffffffffffffffffff1673ffffffffffffffffffffffffffffffffffffffff1681526020019081526020016000208181548110610d72577f4e487b7100000000000000000000000000000000000000000000000000000000600052603260045260246000fd5b906000526020600020906003020160020160009054906101000a900460ff16610dd0576040517f08c379a0000000000000000000000000000000000000000000000000000000008152600401610dc79061187b565b60405180910390fd5b8173ffffffffffffffffffffffffffffffffffffffff166108fc349081150290604051600060405180830381858888f19350505050158015610e16573d6000803e3d6000fd5b50610e1f611116565b600160008473ffffffffffffffffffffffffffffffffffffffff1673ffffffffffffffffffffffffffffffffffffffff1681526020019081526020016000208281548110610e96577f4e487b7100000000000000000000000000000000000000000000000000000000600052603260045260246000fd5b906000526020600020906003020160405180606001604052908160008201548152602001600182018054610ec990611b31565b80601f0160208091040260200160405190810160405280929190818152602001828054610ef590611b31565b8015610f425780601f10610f1757610100808354040283529160200191610f42565b820191906000526020600020905b815481529060010190602001808311610f2557829003601f168201915b505050505081526020016002820160009054906101000a900460ff16151515158152505090506000816040019015159081151581525050600160003373ffffffffffffffffffffffffffffffffffffffff1673ffffffffffffffffffffffffffffffffffffffff168152602001908152602001600020819080600181540180825580915050600190039060005260206000209060030201600090919091909150600082015181600001556020820151816001019080519060200190611008929190611139565b5060408201518160020160006101000a81548160ff02191690831515021790555050506110358383610628565b505050565b6001602052816000526040600020818154811061105657600080fd5b90600052602060002090600302016000915091505080600001549080600101805461108090611b31565b80601f01602080910402602001604051908101604052809291908181526020018280546110ac90611b31565b80156110f95780601f106110ce576101008083540402835291602001916110f9565b820191906000526020600020905b8154815290600101906020018083116110dc57829003601f168201915b5050505050908060020160009054906101000a900460ff16905083565b604051806060016040528060008152602001606081526020016000151581525090565b82805461114590611b31565b90600052602060002090601f01602090048101928261116757600085556111ae565b82601f1061118057805160ff19168380011785556111ae565b828001600101855582156111ae579182015b828111156111ad578251825591602001919060010190611192565b5b5090506111bb919061128c565b5090565b5080546111cb90611b31565b6000825580601f106111dd57506111fc565b601f0160209004906000526020600020908101906111fb919061128c565b5b50565b82805461120b90611b31565b90600052602060002090601f01602090048101928261122d576000855561127b565b82601f1061123e578054855561127b565b8280016001018555821561127b57600052602060002091601f016020900482015b8281111561127a57825482559160010191906001019061125f565b5b509050611288919061128c565b5090565b5b808211156112a557600081600090555060010161128d565b5090565b60006112bc6112b78461191e565b6118f9565b9050808382526020820190508260005b858110156112fc57813585016112e28882611398565b8452602084019350602083019250506001810190506112cc565b5050509392505050565b60006113196113148461194a565b6118f9565b90508281526020810184848401111561133157600080fd5b61133c848285611ac5565b509392505050565b60008135905061135381611e35565b92915050565b60008135905061136881611e4c565b92915050565b600082601f83011261137f57600080fd5b813561138f8482602086016112a9565b91505092915050565b600082601f8301126113a957600080fd5b81356113b9848260208601611306565b91505092915050565b6000813590506113d181611e63565b92915050565b600080604083850312156113ea57600080fd5b60006113f885828601611359565b9250506020611409858286016113c2565b9150509250929050565b6000806040838503121561142657600080fd5b600061143485828601611344565b9250506020611445858286016113c2565b9150509250929050565b60006020828403121561146157600080fd5b600082013567ffffffffffffffff81111561147b57600080fd5b6114878482850161136e565b91505092915050565b6000602082840312156114a257600080fd5b600082013567ffffffffffffffff8111156114bc57600080fd5b6114c884828501611398565b91505092915050565b6000602082840312156114e357600080fd5b60006114f1848285016113c2565b91505092915050565b6000611506838361172b565b905092915050565b60006115198261198b565b61152381856119ae565b9350836020820285016115358561197b565b8060005b85811015611571578484038952815161155285826114fa565b945061155d836119a1565b925060208a01995050600181019050611539565b50829750879550505050505092915050565b61158c81611a8f565b82525050565b61159b81611a8f565b82525050565b60006115ac82611996565b6115b681856119bf565b93506115c6818560208601611ad4565b6115cf81611c6a565b840191505092915050565b60006115e582611996565b6115ef81856119d0565b93506115ff818560208601611ad4565b61160881611c6a565b840191505092915050565b6000611620600e836119d0565b915061162b82611c7b565b602082019050919050565b60006116436024836119d0565b915061164e82611ca4565b604082019050919050565b60006116666018836119d0565b915061167182611cf3565b602082019050919050565b60006116896032836119d0565b915061169482611d1c565b604082019050919050565b60006116ac6017836119d0565b91506116b782611d6b565b602082019050919050565b60006116cf6015836119d0565b91506116da82611d94565b602082019050919050565b60006116f26018836119d0565b91506116fd82611dbd565b602082019050919050565b60006117156025836119d0565b915061172082611de6565b604082019050919050565b6000606083016000830151611743600086018261177b565b506020830151848203602086015261175b82826115a1565b91505060408301516117706040860182611583565b508091505092915050565b61178481611abb565b82525050565b61179381611abb565b82525050565b600060208201905081810360008301526117b3818461150e565b905092915050565b600060208201905081810360008301526117d481611613565b9050919050565b600060208201905081810360008301526117f481611636565b9050919050565b6000602082019050818103600083015261181481611659565b9050919050565b600060208201905081810360008301526118348161167c565b9050919050565b600060208201905081810360008301526118548161169f565b9050919050565b60006020820190508181036000830152611874816116c2565b9050919050565b60006020820190508181036000830152611894816116e5565b9050919050565b600060208201905081810360008301526118b481611708565b9050919050565b60006060820190506118d0600083018661178a565b81810360208301526118e281856115da565b90506118f16040830184611592565b949350505050565b6000611903611914565b905061190f8282611b63565b919050565b6000604051905090565b600067ffffffffffffffff82111561193957611938611c3b565b5b602082029050602081019050919050565b600067ffffffffffffffff82111561196557611964611c3b565b5b61196e82611c6a565b9050602081019050919050565b6000819050602082019050919050565b600081519050919050565b600081519050919050565b6000602082019050919050565b600082825260208201905092915050565b600082825260208201905092915050565b600082825260208201905092915050565b60006119ec82611abb565b91506119f783611abb565b9250827fffffffffffffffffffffffffffffffffffffffffffffffffffffffffffffffff03821115611a2c57611a2b611bdd565b5b828201905092915050565b6000611a4282611abb565b9150611a4d83611abb565b925082821015611a6057611a5f611bdd565b5b828203905092915050565b6000611a7682611a9b565b9050919050565b6000611a8882611a9b565b9050919050565b60008115159050919050565b600073ffffffffffffffffffffffffffffffffffffffff82169050919050565b6000819050919050565b82818337600083830152505050565b60005b83811015611af2578082015181840152602081019050611ad7565b83811115611b01576000848401525b50505050565b6000611b1282611abb565b91506000821415611b2657611b25611bdd565b5b600182039050919050565b60006002820490506001821680611b4957607f821691505b60208210811415611b5d57611b5c611c0c565b5b50919050565b611b6c82611c6a565b810181811067ffffffffffffffff82111715611b8b57611b8a611c3b565b5b80604052505050565b6000611b9f82611abb565b91507fffffffffffffffffffffffffffffffffffffffffffffffffffffffffffffffff821415611bd257611bd1611bdd565b5b600182019050919050565b7f4e487b7100000000000000000000000000000000000000000000000000000000600052601160045260246000fd5b7f4e487b7100000000000000000000000000000000000000000000000000000000600052602260045260246000fd5b7f4e487b7100000000000000000000000000000000000000000000000000000000600052604160045260246000fd5b6000601f19601f8301169050919050565b7f52657175697265643a2031455448000000000000000000000000000000000000600082015250565b7f54686520726563657069656e7420646f65736e2774206861766520616e79204e60008201527f4654732100000000000000000000000000000000000000000000000000000000602082015250565b7f596f7520646f6e277420686176652074686174204e4654210000000000000000600082015250565b7f54686572652068617665206265656e206e6f204e465473206d696e746564206960008201527f6e2074686520636f6e7472616374207965740000000000000000000000000000602082015250565b7f596f7520646f6e2774206861766520616e79204e465473000000000000000000600082015250565b7f496e64657820646f6573206e6f74206578697374210000000000000000000000600082015250565b7f546865204e4654206973206e6f7420666f722073616c65210000000000000000600082015250565b7f54686520726563657069656e7420646f6573206e6f742068617665207468617460008201527f204e465421000000000000000000000000000000000000000000000000000000602082015250565b611e3e81611a6b565b8114611e4957600080fd5b50565b611e5581611a7d565b8114611e6057600080fd5b50565b611e6c81611abb565b8114611e7757600080fd5b5056fea2646970667358221220776460378caee79d73c60093f2083231136b4d06766709697320f2ea8216d5df64736f6c63430008010033",
  "linkReferences": {},
  "deployedLinkReferences": {}
}