{
  "_format": "hh-sol-artifact-1",
  "contractName": "DefiniteToken",
  "sourceName": "contracts/DefiniteToken.sol",
  "abi": [
    {
      "inputs": [],
      "stateMutability": "nonpayable",
      "type": "constructor"
    },
    {
      "inputs": [],
      "name": "BurnAllNFT",
      "outputs": [],
      "stateMutability": "nonpayable",
      "type": "function"
    },
    {
      "inputs": [
        {
          "internalType": "address payable",
          "name": "recepient",
          "type": "address"
        },
        {
          "internalType": "uint256",
          "name": "idOnWallet",
          "type": "uint256"
        }
      ],
      "name": "BuyFromAddress",
      "outputs": [],
      "stateMutability": "payable",
      "type": "function"
    },
    {
      "inputs": [],
      "name": "GetNFTDetailsFromAddress",
      "outputs": [
        {
          "components": [
            {
              "internalType": "uint256",
              "name": "_id",
              "type": "uint256"
            },
            {
              "internalType": "string",
              "name": "_details",
              "type": "string"
            },
            {
              "internalType": "bool",
              "name": "_isForSale",
              "type": "bool"
            }
          ],
          "internalType": "struct DefiniteToken.NFT[]",
          "name": "",
          "type": "tuple[]"
        }
      ],
      "stateMutability": "view",
      "type": "function"
    },
    {
      "inputs": [
        {
          "internalType": "string",
          "name": "details",
          "type": "string"
        }
      ],
      "name": "Mint",
      "outputs": [],
      "stateMutability": "nonpayable",
      "type": "function"
    },
    {
      "inputs": [
        {
          "internalType": "string[]",
          "name": "details",
          "type": "string[]"
        }
      ],
      "name": "MultipleMint",
      "outputs": [],
      "stateMutability": "nonpayable",
      "type": "function"
    },
    {
      "inputs": [
        {
          "internalType": "address",
          "name": "owner",
          "type": "address"
        },
        {
          "internalType": "uint256",
          "name": "id",
          "type": "uint256"
        }
      ],
      "name": "RemoveID",
      "outputs": [],
      "stateMutability": "nonpayable",
      "type": "function"
    },
    {
      "inputs": [
        {
          "internalType": "uint256",
          "name": "idOnWallet",
          "type": "uint256"
        }
      ],
      "name": "SetNFTForSale",
      "outputs": [],
      "stateMutability": "nonpayable",
      "type": "function"
    },
    {
      "inputs": [
        {
          "internalType": "address",
          "name": "",
          "type": "address"
        },
        {
          "internalType": "uint256",
          "name": "",
          "type": "uint256"
        }
      ],
      "name": "_NFTOnAddress",
      "outputs": [
        {
          "internalType": "uint256",
          "name": "_id",
          "type": "uint256"
        },
        {
          "internalType": "string",
          "name": "_details",
          "type": "string"
        },
        {
          "internalType": "bool",
          "name": "_isForSale",
          "type": "bool"
        }
      ],
      "stateMutability": "view",
      "type": "function"
    }
  ],
  "bytecode": "0x608060405234801561001057600080fd5b5060008081905550611ae9806100276000396000f3fe60806040526004361061007b5760003560e01c8063c6dfb6b31161004e578063c6dfb6b314610112578063c9ca4b151461013b578063ca0bf16814610166578063cc671e07146101825761007b565b80634ecdc143146100805780634f2a1b3c146100a9578063c5e1d731146100d2578063c63290c2146100fb575b600080fd5b34801561008c57600080fd5b506100a760048036038101906100a291906112c8565b6101c1565b005b3480156100b557600080fd5b506100d060048036038101906100cb919061134a565b6101fa565b005b3480156100de57600080fd5b506100f960048036038101906100f49190611309565b6103bd565b005b34801561010757600080fd5b506101106104a1565b005b34801561011e57600080fd5b506101396004803603810190610134919061128c565b610590565b005b34801561014757600080fd5b5061015061081a565b60405161015d919061176c565b60405180910390f35b610180600480360381019061017b9190611250565b610a46565b005b34801561018e57600080fd5b506101a960048036038101906101a4919061128c565b610ed1565b6040516101b89392919061188e565b60405180910390f35b60005b81518110156101f6576101e98282815181106101dc57fe5b60200260200101516103bd565b80806001019150506101c4565b5050565b600080541161023e576040517f08c379a0000000000000000000000000000000000000000000000000000000008152600401610235906117ee565b60405180910390fd5b6000600160003373ffffffffffffffffffffffffffffffffffffffff1673ffffffffffffffffffffffffffffffffffffffff16815260200190815260200160002080549050116102c3576040517f08c379a00000000000000000000000000000000000000000000000000000000081526004016102ba9061180e565b60405180910390fd5b80600160003373ffffffffffffffffffffffffffffffffffffffff1673ffffffffffffffffffffffffffffffffffffffff1681526020019081526020016000208054905011610347576040517f08c379a000000000000000000000000000000000000000000000000000000000815260040161033e906117ce565b60405180910390fd5b60018060003373ffffffffffffffffffffffffffffffffffffffff1673ffffffffffffffffffffffffffffffffffffffff168152602001908152602001600020828154811061039257fe5b906000526020600020906003020160020160006101000a81548160ff02191690831515021790555050565b6103c5610fba565b600054816000018181525050818160200181905250600160003373ffffffffffffffffffffffffffffffffffffffff1673ffffffffffffffffffffffffffffffffffffffff168152602001908152602001600020819080600181540180825580915050600190039060005260206000209060030201600090919091909150600082015181600001556020820151816001019080519060200190610469929190610fdd565b5060408201518160020160006101000a81548160ff021916908315150217905550505060008081548092919060010191905055505050565b6000600160003373ffffffffffffffffffffffffffffffffffffffff1673ffffffffffffffffffffffffffffffffffffffff1681526020019081526020016000208054905090505b600081111561058d57600160003373ffffffffffffffffffffffffffffffffffffffff1673ffffffffffffffffffffffffffffffffffffffff16815260200190815260200160002080548061053a57fe5b6001900381819060005260206000209060030201600080820160009055600182016000610567919061105d565b6002820160006101000a81549060ff0219169055505090558080600190039150506104e9565b50565b80600160008473ffffffffffffffffffffffffffffffffffffffff1673ffffffffffffffffffffffffffffffffffffffff1681526020019081526020016000208054905011610614576040517f08c379a000000000000000000000000000000000000000000000000000000000815260040161060b9061182e565b60405180910390fd5b60008190505b60018060008573ffffffffffffffffffffffffffffffffffffffff1673ffffffffffffffffffffffffffffffffffffffff168152602001908152602001600020805490500381101561078857600160008473ffffffffffffffffffffffffffffffffffffffff1673ffffffffffffffffffffffffffffffffffffffff16815260200190815260200160002060018201815481106106b357fe5b9060005260206000209060030201600160008573ffffffffffffffffffffffffffffffffffffffff1673ffffffffffffffffffffffffffffffffffffffff168152602001908152602001600020828154811061070b57fe5b9060005260206000209060030201600082015481600001556001820181600101908054600181600116156101000203166002900461074a9291906110a5565b506002820160009054906101000a900460ff168160020160006101000a81548160ff021916908315150217905550905050808060010191505061061a565b50600160008373ffffffffffffffffffffffffffffffffffffffff1673ffffffffffffffffffffffffffffffffffffffff1681526020019081526020016000208054806107d157fe5b60019003818190600052602060002090600302016000808201600090556001820160006107fe919061105d565b6002820160006101000a81549060ff0219169055505090555050565b60606000805411610860576040517f08c379a0000000000000000000000000000000000000000000000000000000008152600401610857906117ee565b60405180910390fd5b6000600160003373ffffffffffffffffffffffffffffffffffffffff1673ffffffffffffffffffffffffffffffffffffffff16815260200190815260200160002080549050116108e5576040517f08c379a00000000000000000000000000000000000000000000000000000000081526004016108dc9061180e565b60405180910390fd5b600160003373ffffffffffffffffffffffffffffffffffffffff1673ffffffffffffffffffffffffffffffffffffffff168152602001908152602001600020805480602002602001604051908101604052809291908181526020016000905b82821015610a3d578382906000526020600020906003020160405180606001604052908160008201548152602001600182018054600181600116156101000203166002900480601f016020809104026020016040519081016040528092919081815260200182805460018160011615610100020316600290048015610a0a5780601f106109df57610100808354040283529160200191610a0a565b820191906000526020600020905b8154815290600101906020018083116109ed57829003601f168201915b505050505081526020016002820160009054906101000a900460ff16151515158152505081526020019060010190610944565b50505050905090565b662386f26fc100003414610a8f576040517f08c379a0000000000000000000000000000000000000000000000000000000008152600401610a869061178e565b60405180910390fd5b6000805411610ad3576040517f08c379a0000000000000000000000000000000000000000000000000000000008152600401610aca906117ee565b60405180910390fd5b6000600160008473ffffffffffffffffffffffffffffffffffffffff1673ffffffffffffffffffffffffffffffffffffffff1681526020019081526020016000208054905011610b58576040517f08c379a0000000000000000000000000000000000000000000000000000000008152600401610b4f906117ae565b60405180910390fd5b80600160008473ffffffffffffffffffffffffffffffffffffffff1673ffffffffffffffffffffffffffffffffffffffff1681526020019081526020016000208054905011610bdc576040517f08c379a0000000000000000000000000000000000000000000000000000000008152600401610bd39061186e565b60405180910390fd5b600160008373ffffffffffffffffffffffffffffffffffffffff1673ffffffffffffffffffffffffffffffffffffffff1681526020019081526020016000208181548110610c2657fe5b906000526020600020906003020160020160009054906101000a900460ff16610c84576040517f08c379a0000000000000000000000000000000000000000000000000000000008152600401610c7b9061184e565b60405180910390fd5b8173ffffffffffffffffffffffffffffffffffffffff166108fc349081150290604051600060405180830381858888f19350505050158015610cca573d6000803e3d6000fd5b50610cd3610fba565b600160008473ffffffffffffffffffffffffffffffffffffffff1673ffffffffffffffffffffffffffffffffffffffff1681526020019081526020016000208281548110610d1d57fe5b906000526020600020906003020160405180606001604052908160008201548152602001600182018054600181600116156101000203166002900480601f016020809104026020016040519081016040528092919081815260200182805460018160011615610100020316600290048015610dd95780601f10610dae57610100808354040283529160200191610dd9565b820191906000526020600020905b815481529060010190602001808311610dbc57829003601f168201915b505050505081526020016002820160009054906101000a900460ff16151515158152505090506000816040019015159081151581525050600160003373ffffffffffffffffffffffffffffffffffffffff1673ffffffffffffffffffffffffffffffffffffffff168152602001908152602001600020819080600181540180825580915050600190039060005260206000209060030201600090919091909150600082015181600001556020820151816001019080519060200190610e9f929190610fdd565b5060408201518160020160006101000a81548160ff0219169083151502179055505050610ecc8383610590565b505050565b60016020528160005260406000208181548110610eea57fe5b906000526020600020906003020160009150915050806000015490806001018054600181600116156101000203166002900480601f016020809104026020016040519081016040528092919081815260200182805460018160011615610100020316600290048015610f9d5780601f10610f7257610100808354040283529160200191610f9d565b820191906000526020600020905b815481529060010190602001808311610f8057829003601f168201915b5050505050908060020160009054906101000a900460ff16905083565b604051806060016040528060008152602001606081526020016000151581525090565b828054600181600116156101000203166002900490600052602060002090601f016020900481019282601f1061101e57805160ff191683800117855561104c565b8280016001018555821561104c579182015b8281111561104b578251825591602001919060010190611030565b5b509050611059919061112c565b5090565b50805460018160011615610100020316600290046000825580601f1061108357506110a2565b601f0160209004906000526020600020908101906110a1919061112c565b5b50565b828054600181600116156101000203166002900490600052602060002090601f016020900481019282601f106110de578054855561111b565b8280016001018555821561111b57600052602060002091601f016020900482015b8281111561111a5782548255916001019190600101906110ff565b5b509050611128919061112c565b5090565b5b8082111561114557600081600090555060010161112d565b5090565b60008135905061115881611a6e565b92915050565b60008135905061116d81611a85565b92915050565b600082601f83011261118457600080fd5b8135611197611192826118fd565b6118cc565b9150818183526020840193506020810190508360005b838110156111dd57813586016111c388826111e7565b8452602084019350602083019250506001810190506111ad565b5050505092915050565b600082601f8301126111f857600080fd5b813561120b61120682611929565b6118cc565b9150808252602083016020830185838301111561122757600080fd5b611232838284611a19565b50505092915050565b60008135905061124a81611a9c565b92915050565b6000806040838503121561126357600080fd5b60006112718582860161115e565b92505060206112828582860161123b565b9150509250929050565b6000806040838503121561129f57600080fd5b60006112ad85828601611149565b92505060206112be8582860161123b565b9150509250929050565b6000602082840312156112da57600080fd5b600082013567ffffffffffffffff8111156112f457600080fd5b61130084828501611173565b91505092915050565b60006020828403121561131b57600080fd5b600082013567ffffffffffffffff81111561133557600080fd5b611341848285016111e7565b91505092915050565b60006020828403121561135c57600080fd5b600061136a8482850161123b565b91505092915050565b600061137f83836116fe565b905092915050565b600061139282611969565b61139c818561198c565b9350836020820285016113ae85611959565b8060005b858110156113ea57848403895281516113cb8582611373565b94506113d68361197f565b925060208a019950506001810190506113b2565b50829750879550505050505092915050565b611405816119e3565b82525050565b611414816119e3565b82525050565b600061142582611974565b61142f818561199d565b935061143f818560208601611a28565b61144881611a5d565b840191505092915050565b600061145e82611974565b61146881856119ae565b9350611478818560208601611a28565b61148181611a5d565b840191505092915050565b6000611499600e836119ae565b91507f52657175697265643a20314554480000000000000000000000000000000000006000830152602082019050919050565b60006114d96024836119ae565b91507f54686520726563657069656e7420646f65736e2774206861766520616e79204e60008301527f46547321000000000000000000000000000000000000000000000000000000006020830152604082019050919050565b600061153f6018836119ae565b91507f596f7520646f6e277420686176652074686174204e46542100000000000000006000830152602082019050919050565b600061157f6032836119ae565b91507f54686572652068617665206265656e206e6f204e465473206d696e746564206960008301527f6e2074686520636f6e74726163742079657400000000000000000000000000006020830152604082019050919050565b60006115e56017836119ae565b91507f596f7520646f6e2774206861766520616e79204e4654730000000000000000006000830152602082019050919050565b60006116256015836119ae565b91507f496e64657820646f6573206e6f742065786973742100000000000000000000006000830152602082019050919050565b60006116656018836119ae565b91507f546865204e4654206973206e6f7420666f722073616c652100000000000000006000830152602082019050919050565b60006116a56025836119ae565b91507f54686520726563657069656e7420646f6573206e6f742068617665207468617460008301527f204e4654210000000000000000000000000000000000000000000000000000006020830152604082019050919050565b6000606083016000830151611716600086018261174e565b506020830151848203602086015261172e828261141a565b915050604083015161174360408601826113fc565b508091505092915050565b61175781611a0f565b82525050565b61176681611a0f565b82525050565b600060208201905081810360008301526117868184611387565b905092915050565b600060208201905081810360008301526117a78161148c565b9050919050565b600060208201905081810360008301526117c7816114cc565b9050919050565b600060208201905081810360008301526117e781611532565b9050919050565b6000602082019050818103600083015261180781611572565b9050919050565b60006020820190508181036000830152611827816115d8565b9050919050565b6000602082019050818103600083015261184781611618565b9050919050565b6000602082019050818103600083015261186781611658565b9050919050565b6000602082019050818103600083015261188781611698565b9050919050565b60006060820190506118a3600083018661175d565b81810360208301526118b58185611453565b90506118c4604083018461140b565b949350505050565b6000604051905081810181811067ffffffffffffffff821117156118f3576118f2611a5b565b5b8060405250919050565b600067ffffffffffffffff82111561191857611917611a5b565b5b602082029050602081019050919050565b600067ffffffffffffffff82111561194457611943611a5b565b5b601f19601f8301169050602081019050919050565b6000819050602082019050919050565b600081519050919050565b600081519050919050565b6000602082019050919050565b600082825260208201905092915050565b600082825260208201905092915050565b600082825260208201905092915050565b60006119ca826119ef565b9050919050565b60006119dc826119ef565b9050919050565b60008115159050919050565b600073ffffffffffffffffffffffffffffffffffffffff82169050919050565b6000819050919050565b82818337600083830152505050565b60005b83811015611a46578082015181840152602081019050611a2b565b83811115611a55576000848401525b50505050565bfe5b6000601f19601f8301169050919050565b611a77816119bf565b8114611a8257600080fd5b50565b611a8e816119d1565b8114611a9957600080fd5b50565b611aa581611a0f565b8114611ab057600080fd5b5056fea264697066735822122062e12fe7e1ee417922cbdba146a54687c6ceb548d79e0ad52653ca8e4ec2807f64736f6c63430007030033",
  "linkReferences": {},
  "deployedLinkReferences": {}
}